:100000000C9463000C948B000C948B000C948B006C
:100010000C948B000C948B000C948B000C948B0034
:100020000C948B000C948B000C948B000C948B0024
:100030000C948B000C948B000C948B000C948B0014
:100040000C944D040C948B000C94BD040C949704F8
:100050000C948B000C948B000C948B000C948B00F4
:100060000C948B000C948B000000000023002600F1
:10007000290000000000240027002A0000000000E2
:10008000250028002B0004040404040404040202D4
:100090000202020203030303030301020408102007
:1000A0004080010204081020010204081020000012
:1000B0000008000201000003040700000000000027
:1000C0000000EF04940811241FBECFEFD8E0DEBF7C
:1000D000CDBF23E0A2E4B2E001C01D92A630B2077A
:1000E000E1F712E0A0E0B1E0E2E3F6E102C0059042
:1000F0000D92A234B107D9F710E0C2E6D0E004C0F7
:100100002197FE010E940309C136D107C9F70E9459
:100110002A050C940C0B0C940000833081F028F419
:10012000813099F08230A9F008958730A9F08830A5
:10013000C9F08430B1F4809180008F7D03C080913C
:1001400080008F7780938000089584B58F7784BD79
:10015000089584B58F7DFBCF8091B0008F77809319
:10016000B00008958091B0008F7DF9CF1F93CF9399
:10017000DF93282F30E0F901E255FF4F8491F90118
:10018000E656FF4FD491F901EA57FF4FC491CC23B3
:10019000A9F0162F81110E948D00EC2FF0E0EE0FD8
:1001A000FF1FE458FF4FA591B4918FB7F894EC91DD
:1001B000111108C0D095DE23DC938FBFDF91CF9162
:1001C0001F910895DE2BF8CFCF93DF9390E0FC01D1
:1001D000E656FF4F24918A579F4FFC018491882354
:1001E000D1F090E0880F991FFC01EE58FF4FA591C8
:1001F000B491FC01E458FF4FC591D491623071F481
:100200009FB7F8943C91822F809583238C93E8814B
:100210002E2B28839FBFDF91CF9108958FB7F8943D
:10022000EC912E2B2C938FBFF6CF2FB7F8946091C3
:100230005B0270915C0280915D0290915E022FBF23
:1002400008950895AF92BF92CF92DF92EF92FF92FE
:100250000F931F93CF93DF936C017B018B01040FEE
:10026000151FEB015E01AE18BF08C017D10759F08A
:100270006991D601ED91FC910190F081E02DC601CC
:100280000995892B79F7C501DF91CF911F910F91C6
:10029000FF90EF90DF90CF90BF90AF900895FC015A
:1002A000538D448D252F30E0842F90E0821B930BDB
:1002B000541710F0CF96089501970895FC01918D81
:1002C000828D981761F0A28DAE0FBF2FB11D5D9684
:1002D0008C91928D9F5F9F73928F90E008958FEF26
:1002E0009FEF08950F931F930E941501609367027B
:1002F000709368028093690290936A028FE592E09E
:100300000E945E0197FF1DC00E94150100916702C7
:10031000109168022091690230916A02601B710B92
:10032000820B930B0091630210916402209165028D
:10033000309166026017710782079307F8F28FEF1A
:100340009FEF1F910F910895FC01918D828D981759
:1003500031F0828DE80FF11D858D90E008958FEFCB
:100360009FEF0895FC01918D228D892F90E0805C94
:100370009F4F821B91098F73992708958FE592E013
:100380000E94B20121E0892B09F420E0822F089518
:1003900080E090E0892B29F00E94BE0181110C942D
:1003A00000000895FC01A48DA80FB92FB11DA35A18
:1003B000BF4F2C91848D90E001968F739927848F85
:1003C000A689B7892C93A089B1898C9183708064A8
:1003D0008C93938D848D981306C00288F389E02D49
:1003E00080818F7D80830895EF92FF920F931F93FA
:1003F000CF93DF93EC0181E0888F9B8D8C8D9813D8
:100400001AC0E889F989808185FF15C09FB7F894E3
:10041000EE89FF896083E889F9898081837080642F
:1004200080839FBF81E090E0DF91CF911F910F917A
:10043000FF90EF900895F62E0B8D10E00F5F1F4F89
:100440000F731127E02E8C8D8E110CC00FB607FC98
:10045000FACFE889F989808185FFF5CFCE010E9426
:10046000D201F1CFEB8DEC0FFD2FF11DE35AFF4FC1
:10047000F0829FB7F8940B8FEA89FB8980818062B4
:10048000CFCFCF93DF93EC01888D8823B9F0AA8971
:10049000BB89E889F9898C9185FD03C0808186FD3F
:1004A0000DC00FB607FCF7CF8C9185FFF2CF80818E
:1004B00085FFEDCFCE010E94D201E9CFDF91CF9130
:1004C000089560E088E00E94B60060E089E00E9444
:1004D000B60060E08AE00C94B600FC0101900020B8
:1004E000E9F73197AF01481B590BBC018FE592E04A
:1004F0000C942201CF93DF930E946D02EC0186E3FE
:1005000091E00E946D028C0F9D1FDF91CF910895A5
:1005100061E088E00E94B60060E089E00E94B600D9
:1005200060E08AE00E94B60089E391E00C947A02D0
:1005300060E088E00E94B60061E089E00E94B600B9
:1005400060E08AE00E94B60081E491E00C947A02B7
:1005500060E088E00E94B60060E089E00E94B6009A
:1005600061E08AE00E94B6008DE491E00C947A028A
:1005700020910001309101012817390789F09093EB
:10058000010180930001009711F40C9488028130DE
:10059000910511F40C94A802029711F40C9498029E
:1005A000089520910001309101012817390731F495
:1005B00020914A0230914B02232B89F09093010144
:1005C00080930001009711F40C948802813091050A
:1005D00011F40C94A802029711F40C949802089557
:1005E000CF93DF938091510291E08927809351024C
:1005F000882301F180914A0290914B02909343022B
:100600008093420281E090E090934B0280934A02F3
:1006100010924C020E94150160934D0270934E029D
:1006200080934F029093500286E591E0DF91CF9145
:100630000C947A0287E691E00E947A02C09142020D
:10064000D0914302D0934B02C0934A020E941501FD
:100650006093440270934502809346029093470250
:100660000E946102209741F48091480290914902D2
:10067000DF91CF910C94D102229741F480914802EE
:1006800090914902DF91CF910C94B802DF91CF9104
:100690000895809151028823E1F010925102109246
:1006A0004C020E94610287E691E00E947A028091EA
:1006B00042029091430290934B0280934A020E941F
:1006C0001501609344027093450280934602909313
:1006D00047020895FC0180819181009711F00C94EC
:1006E000A5090895AF92BF92CF92DF92EF92FF9249
:1006F0000F931F93CF93DF93DC01CD90DC90119784
:10070000C114D10439F01496CD91DC918C0176019D
:10071000209761F4DF91CF911F910F91FF90EF909F
:10072000DF90CF90BF90AF90089575015701BFEF54
:10073000AB1ABB0AF7018081082E000C990B0E94AE
:100740009808892B91F72197CC0DDD1D8881082E03
:10075000000C990B0E949808892B29F0CE15DF0513
:1007600010F02197F3CFAE014F5F5F4F4E195F0935
:10077000D80115965C934E931497CE14DF0420F4A1
:10078000B701C6010E94F30AD801ED91FC911197BF
:1007900014968D919C91E80FF91F1082BBCFCF93D7
:1007A000DF93FC01C081D181209761F0899188237A
:1007B00049F0082E000C990B0E94EB0AFE013197BC
:1007C0008083F4CFDF91CF910895FC01248135819E
:1007D000232B39F421E0FB018081882349F020E0BC
:1007E00007C0808191810E94FC0A21E0892BB9F722
:1007F000822F08950F931F93CF93DF93EC0188818D
:100800009981009759F02A813B812617370730F0EC
:1008100081E0DF91CF911F910F9108958B016F5F60
:100820007F4F0E942E0A009759F0998388831B837B
:100830000A832C813D81232B59F7FC011082E8CFDC
:1008400080E0E7CFEF92FF920F931F93CF93DF9358
:10085000EC017B018A01BA010E94FA0328813981E7
:10086000811114C02115310519F0C9010E94A50993
:10087000198218821D821C821B821A82CE01DF918E
:10088000CF911F910F91FF90EF9008951D830C83DE
:10089000B701C9010E94050BF1CF1F920F920FB64D
:1008A0000F9211242F933F938F939F93AF93BF93F6
:1008B00080915B0290915C02A0915D02B0915E021A
:1008C00030915A0223E0230F2D3758F50196A11DD0
:1008D000B11D20935A0280935B0290935C02A09317
:1008E0005D02B0935E028091560290915702A091F2
:1008F0005802B09159020196A11DB11D8093560274
:1009000090935702A0935802B0935902BF91AF91B0
:100910009F918F913F912F910F900FBE0F901F903D
:10092000189526E8230F0296A11DB11DD2CF1F9264
:100930000F920FB60F9211242F933F934F935F9313
:100940006F937F938F939F93AF93BF93EF93FF9397
:100950008FE592E00E94D201FF91EF91BF91AF919C
:100960009F918F917F916F915F914F913F912F91C7
:100970000F900FBE0F901F9018951F920F920FB6F9
:100980000F9211242F938F939F93EF93FF93E091F6
:100990006F02F09170028081E0917502F091760211
:1009A00082FD1BC09081809178028F5F8F732091B0
:1009B0007902821741F0E0917802F0E0E15AFD4FB0
:1009C000958F80937802FF91EF919F918F912F9156
:1009D0000F900FBE0F901F9018958081F4CFEFE518
:1009E000F2E01382128288EE93E0A0E0B0E084830C
:1009F0009583A683B78388E291E09183808385EC19
:100A000090E09587848784EC90E09787868780ECD8
:100A100090E0918B808B81EC90E0938B828B82ECC9
:100A200090E0958B848B86EC90E0978B868B118E73
:100A3000128E138E148EECEFF2E01182108213826C
:100A400012821582148250E040E068E371E0CF0129
:100A50000C942204CF93DF93CDB7DEB728970FB65F
:100A6000F894DEBF0FBECDBF789484B5826084BD9C
:100A700084B5816084BD85B5826085BD85B58160A2
:100A800085BD80916E00816080936E001092810020
:100A900080918100826080938100809181008160DB
:100AA000809381008091800081608093800080919C
:100AB000B10084608093B1008091B0008160809328
:100AC000B00080917A00846080937A0080917A00EF
:100AD000826080937A0080917A00816080937A00AE
:100AE00080917A00806880937A001092C10061E062
:100AF00088E00E94E40061E089E00E94E40061E097
:100B00008AE00E94E40062E082E00E94E400E0915A
:100B10006F02F091700282E08083E0916B02F091AD
:100B20006C021082E0916D02F0916E028FEC808376
:100B300010927702E0917302F091740286E0808354
:100B4000E0917102F0917202808180618083E09176
:100B50007102F0917202808188608083E09171025D
:100B6000F0917202808180688083E0917102F0913F
:100B7000720280818F7D80830E94610210924902FF
:100B8000109248020E94150160934402709345023E
:100B9000809346029093470289E791E00E947A028F
:100BA00080914802909149020E94D10273E0C72EC1
:100BB000D12CEE24E394F12CF2E08F2E912C58E806
:100BC000252E50E0352E60E0A62E60E0B62E0E9465
:100BD00015012B013C018FE592E00E94B201892BA7
:100BE00009F49BC01A8219821C821B821E821D82FC
:100BF00050E040E068E371E0CE0101960E942204DB
:100C00000E94720197FD1EC08A309105D9F08F8332
:100C100018860D811E810F5F1F4FB801CE0101960E
:100C20000E94FA03882361F329813A818D819E8194
:100C3000BE01695F7F4F820F931F0E94050B1E83C9
:100C40000D83DECF8091FC029091FD02009709F4A4
:100C500007C169817A816115710509F4FFC040916E
:100C6000FE025091FF022D813E814217530708F486
:100C7000F5C00E94050B8D819E81909301038093A6
:100C800000031E821D82CE0101960E946A038CEF32
:100C900092E00E9472038CEF92E00E94CF031A82CE
:100CA00019821C821B821E821D826091FC0270913F
:100CB000FD026115710541F040910003509101035F
:100CC000CE0101960E9422048D819E81892BC9F05C
:100CD000CE0101960E947203CE0101960E94CF03BD
:100CE00067E871E0CE0101960E94E503882309F4CC
:100CF000CEC00E944903F0924B02E0924A020E9449
:100D00008802CE0101960E946A0350E040E068E349
:100D100071E08CEF92E00E942204E0EBF0E084911D
:100D2000ECE9F0E00491F1011491112309F44DC1B3
:100D300081110E948D00E12FF0E0EE0FFF1FE859B6
:100D4000FF4FA591B4918C91082391E080E009F4C4
:100D500090E0092F182F80910401909105018017D0
:100D6000910741F040925202509253026092540215
:100D7000709255028091520290915302A0915402B8
:100D8000B0915502A3019201281B390B4A0B5B0B52
:100D9000DA01C901C397A105B105A8F0809102014C
:100DA000909103018017910771F010930301009354
:100DB00002010115110509F00BC18CEF91E00E94B1
:100DC0007A020E94F00210930501009304018091C1
:100DD0005102882309F410C180914D0290914E0276
:100DE000A0914F02B091500293018201081B190B90
:100DF0002A0B3B0BD901C801843F9140A105B105E5
:100E000008F140924D0250924E0260924F02709251
:100E1000500280914C0221E0822780934C0288236B
:100E200009F4DBC061E088E00E94B60061E089E07F
:100E30000E94B60061E08AE00E94B60086E192E07E
:100E40000E947A02A114B10409F4C1CE0E94BE012D
:100E5000882309F4B4CE0E940000B1CE0E94A509F7
:100E600089819A819093FD028093FC028B819C8101
:100E70009093FF028093FE028D819E8190930103E7
:100E8000809300031A8219821C821B82FACE6CE8BE
:100E900071E0CE0101960E94E503882349F00E948B
:100EA0004903F0924B02E0924A020E94980229CF35
:100EB00065E971E0CE0101960E94E503882349F0BF
:100EC0000E944903F0924B02E0924A020E94A8025B
:100ED00018CF6FE272E0CE0101960E94E503811106
:100EE00010C06BE971E0CE0101960E94E50381110B
:100EF00008C062EA71E0CE0101960E94E5038823F2
:100F000069F00E944903F0924B02E0924A020E946B
:100F1000610282EA91E00E947A02F3CE6AEA71E00D
:100F2000CE0101960E94E5038823D9F00E9449036F
:100F300090924B0280924A0210924902109248020B
:100F40000E9415016093440270934502809346020B
:100F50009093470290E080E00E94B80280EB91E01D
:100F6000DACF6CEB71E0CE0101960E94E5038111AE
:100F700029C068EC71E0CE0101960E94E503811161
:100F800021C065ED71E0CE0101960E94E50381115B
:100F900019C063EE71E0CE0101960E94E503811154
:100FA00011C086EF91E00E946D024D815E816981E2
:100FB0007A818FE592E00E94220186E391E00E940F
:100FC0006D029FCE0E94F0029CCE10E000E0C3CEE6
:100FD0008AE092E00E947A02F6CE60E088E00E9409
:100FE000B60060E089E00E94B60060E08AE00E94FE
:100FF000B60084E292E024CF80914A0290914B02A5
:101000008230910509F057C08091480290914902C1
:10101000FC01EE0FFF1FEE0FFF1FE85EFE4F409139
:10102000440250914502609146027091470293013B
:101030008201041B150B260B370BB901A801008197
:10104000118122813381401751076207730708F429
:10105000F9CE0196B6010E94DB0890934902809375
:1010600048024092440250924502609246027092B9
:1010700047020E94B8028091480290914902892B50
:1010800009F0E0CE83E392E00E947A0210924B02D4
:1010900010924A0210924902109248024092440271
:1010A00050924502609246027092470290E080E0C2
:1010B0000E94D102C7CE892B09F0C4CE809148028C
:1010C00090914902FC01EE0FFF1FEE0FFF1FE45F3E
:1010D000FE4F40914402509145026091460270914A
:1010E000470293018201041B150B260B370BB90134
:1010F000A8010081118122813381401751076207C5
:10110000730708F49FCE0196B6010E94DB08909306
:1011100049028093480240924402509245026092F4
:10112000460270924702C4CF8CEF92E00C946A039F
:1011300091110C94A108803219F089508550C8F79C
:1011400008959927882708952F923F924F925F9292
:101150006F927F928F929F92AF92BF92CF92DF92C7
:10116000EF92FF920F931F93CF93DF93CDB7DEB72C
:10117000CA1BDB0B0FB6F894DEBF0FBECDBF0994C0
:101180002A88398848885F846E847D848C849B8417
:10119000AA84B984C884DF80EE80FD800C811B8125
:1011A000AA81B981CE0FD11D0FB6F894DEBF0FBE54
:1011B000CDBFED01089597FB072E16F4009407D0DC
:1011C00077FD09D00E94EF0807FC05D03EF490950A
:1011D00081959F4F0895709561957F4F0895AA1B43
:1011E000BB1B51E107C0AA1FBB1FA617B70710F012
:1011F000A61BB70B881F991F5A95A9F78095909544
:10120000BC01CD010895EE0FFF1F0590F491E02D74
:1012100009940F931F93CF93DF938230910510F4BD
:1012200082E090E0E0910403F091050330E020E0DB
:10123000B0E0A0E0309799F42115310509F44AC0D7
:10124000281B390B24303105D8F58A819B81611523
:10125000710589F1FB0193838283FE0111C04081F6
:1012600051810281138148175907E0F04817590747
:1012700099F4109761F012960C93129713961C93A1
:101280003296CF01DF91CF911F910F910895009376
:10129000040310930503F4CF2115310551F04217D3
:1012A000530738F0A901DB019A01BD01DF01F80104
:1012B000C1CFEF01F9CF9093050380930403CDCF05
:1012C000FE01E20FF31F819391932250310939837C
:1012D0002883D7CF2091020330910303232B41F4BD
:1012E00020910801309109013093030320930203F8
:1012F00020910601309107012115310541F42DB7E8
:101300003EB740910A0150910B01241B350BE0912F
:101310000203F0910303E217F307A0F42E1B3F0B27
:101320002817390778F0AC014E5F5F4F2417350757
:1013300048F04E0F5F1F50930303409302038193C5
:1013400091939FCFF0E0E0E09CCFCF93DF930097A5
:10135000E9F0FC01329713821282A0910403B0914C
:101360000503ED0130E020E01097A1F420813181E8
:10137000820F931F2091020330910303281739072E
:1013800009F061C0F0930303E0930203DF91CF9172
:101390000895EA01CE17DF07E8F54A815B819E01D7
:1013A00041155105B1F7E901FB83EA834991599150
:1013B000C40FD51FEC17FD0761F48081918102965F
:1013C000840F951FE90199838883828193819B8390
:1013D0008A83F0E0E0E012968D919C91139700973C
:1013E000B9F52D913C911197CD010296820F931F73
:1013F00020910203309103032817390739F63097FB
:1014000051F51092050310920403B0930303A093C7
:101410000203BCCFD383C28340815181840F951FC7
:10142000C817D90761F44E5F5F4F88819981480FD3
:10143000591F518340838A819B8193838283211525
:10144000310509F0B0CFF0930503E09304039ECF7C
:10145000FD01DC01C0CF13821282D7CFB0E0A0E043
:10146000E4E3FAE00C94A6088C01009751F4CB0158
:101470000E9409098C01C801CDB7DEB7E0E10C94E8
:10148000C208FC01E60FF71F9C0122503109E21748
:10149000F30708F49DC0D901CD91DC911197C617CF
:1014A000D70798F0C530D10530F3CE0104978617E1
:1014B000970708F3C61BD70B2297C193D1936D935F
:1014C0007C93CF010E94A509D6CF5B01AC1ABD0A5F
:1014D0004C018C0E9D1EA0910403B0910503512C6C
:1014E000412CF12CE12C109731F580910203909161
:1014F00003038815990509F05CC04616570608F0E5
:1015000058C08091060190910701009741F48DB772
:101510009EB740910A0150910B01841B950BE8176F
:10152000F90708F055C0F0930303E0930203F901B3
:1015300071836083A0CF8D919C91119712966C90CE
:10154000129713967C901397A815B90559F56C015D
:1015500042E0C40ED11CCA14DB0420F1AC014A19CC
:101560005B09DA011296159780F0628273825183CB
:101570004083D9016D937C93E114F10471F0D7019C
:101580001396FC93EE93129776CF22968C0F9D1FA5
:10159000F90191838083F301EFCFF0930503E0938A
:1015A000040369CF4816590608F42C017D01D301C4
:1015B0009ACFCB010E9409097C01009749F0AE0146
:1015C000B8010E94F30AC8010E94A509870153CF00
:1015D00010E000E050CF9111089581568A5108F42F
:1015E000805285580895FB01DC0102C001900D92E4
:1015F00041505040D8F70895FB01DC018D910190D6
:1016000080190110D9F3990B0895FB01DC010190B9
:101610000D920020E1F7089510E0C2E6D0E004C08A
:10162000FE010E9403092196C336D107C9F7F89439
:02163000FFCFEA
:10163200FFFF010001000000060380008813000084
:10164200B80B0000E8030000B80B0000B80B000064
:10165200DC05000000000000F40122014F014102FC
:10166200B2015E01A4010D0A00524F4A4F204F4EB3
:1016720000414D4152494C4C4F204F4E005645526D
:101682004445204F4E004D414E54454E494D49452B
:101692004E544F204F4E004D414E54454E494D49F8
:1016A200454E544F204F46460053454D41464F52FA
:1016B2004F20424F4F5400524F4A4F00414D41522A
:1016C200494C4C4F00564552444500415041474118
:1016D2005200414C4C204F4646004349434C4F0078
:1016E2004349434C4F20535441525400544F4747AF
:1016F2004C455F4D4F444500544F47474C455F4D65
:1017020041494E54004D414E54454E494D49454E76
:10171200544F00544F47474C455F4D41494E544545
:101722004E414E4345005243563A2000424F544FD9
:101732004E2050554C5341444F00424F544F4E207F
:101742004C49425245004D414E545F424C494E4B2A
:10175200204F4E004D414E545F424C494E4B204F5C
:101762004646004349434C4F20434F4D504C45544D
:02177200450030
:00000001FF
